:1000000019C033C032C031C082C02FC02EC02DC035
:100010002CC02BC02AC029C028C027C026C025C09C
:1000200024C023C0C8C021C020C01FC01EC01DC026
:100030001CC01BC011241FBECFEFD4E0DEBFCDBF5C
:1000400011E0A0E0B1E0E8E1F2E002C005900D921D
:10005000A230B107D9F721E0A2E0B1E001C01D92C2
:10006000A430B207E1F7D2D0D5C0CACF87B18C7F18
:1000700087B983E088B992E09093680080936C0020
:1000800086B1837080930301789487B1806387B9C8
:10009000089580E48AB983EC84BD81E085BD17BCF6
:1000A00008958FB7F8941092C50099E19093C40019
:1000B00098E99093C100E2ECF0E090819660908323
:1000C0008FBF7894089527B54091010130E08FEFFC
:1000D00090E0841B9109821793072CF087B59091CB
:1000E0000101890F87BD089597B580910101981787
:1000F00028F087B590910101891B87BD0895E0EC38
:10010000F0E0908195FFFDCF8093C60008951F9287
:100110000F920FB60F9211242F933F934F935F933B
:100120006F937F938F939F93AF93BF93EF93FF93BF
:1001300046B1437040930201709103014091030165
:1001400060910201447050E0440F551F71FB8827F5
:1001500080F990E0842B952B8627019711F4C4DF5A
:1001600015C05091030180910301409102018470F8
:1001700090E0880F991F51FB222720F930E0282BAF
:10018000392B24272230310509F49DDF80910201AB
:1001900080930301FF91EF91BF91AF919F918F9158
:1001A0007F916F915F914F913F912F910F900FBE73
:1001B0000F901F9018951F920F920FB60F92112457
:1001C0002F933F934F935F936F937F938F939F935F
:1001D000AF93BF93EF93FF938091C6008A3F21F4C2
:1001E00028B190E3922798B98ADFFF91EF91BF91F0
:1001F000AF919F918F917F916F915F914F913F91BF
:100200002F910F900FBE0F901F9018952FDF41DF99
:0802100048DFFFCFF894FFCF97
:020218000A0AD0
:00000001FF
